:020000040800F2
:100000000807002089010008C91B0008C11B00085F
:10001000C51B000891020008F51C00080000000044
:10002000000000000000000000000000D11B0008DC
:100030009502000800000000CD1B0008D51B000839
:10004000A3010008A3010008A3010008A301000800
:10005000A3010008A3010008A3010008A3010008F0
:10006000A3010008A3010008A3010008A3010008E0
:10007000A3010008A3010008A3010008A3010008D0
:10008000A3010008A3010008A3010008A3010008C0
:10009000A3010008A3010008A3010008A3010008B0
:1000A000A3010008A3010008A3010008A3010008A0
:1000B000A3010008A3010008A3010008A301000890
:1000C000A3010008A3010008A3010008A301000880
:1000D000A3010008E91C0008A3010008A30100080F
:1000E000A3010008A3010008A301000800F002F822
:1000F00000F03AF80AA090E8000C82448344AAF188
:100100000107DA4501D100F02FF8AFF2090EBAE885
:100110000F0013F0010F18BFFB1A43F0010318473B
:10012000B41D0000D41D0000103A24BF78C878C167
:10013000FAD8520724BF30C830C144BF04680C60ED
:10014000704700000023002400250026103A28BF35
:1001500078C1FBD8520728BF30C148BF0B60704739
:100160001FB51FBD10B510BD00F058F81146FFF7C0
:10017000F7FF01F0C1FD00F076F803B4FFF7F2FFDE
:1001800003BC00F07DF8000009488047094800479B
:10019000FEE7FEE7FEE7FEE7FEE7FEE7FEE7FEE737
:1001A000FEE7FEE704480549054A064B7047000094
:1001B000D91B0008ED0000080801002008070020F6
:1001C00008030020080300204FF0000200B513468A
:1001D00094469646203922BFA0E80C50A0E80C5067
:1001E000B1F12001BFF4F7AF090728BFA0E80C5018
:1001F00048BF0CC05DF804EB890028BF40F8042B11
:1002000008BF704748BF20F8022B11F0804F18BF7D
:1002100000F8012B7047704770477047754600F033
:100220002BF8AE4605006946534620F00700854688
:1002300018B020B5FFF7B6FFBDE820404FF000062C
:100240004FF000074FF000084FF0000BAC46ACE851
:10025000C009ACE8C009ACE8C009ACE8C00921F0AD
:1002600007018D46704710B50446AFF30080204665
:10027000BDE81040FFF781BF004870471000002024
:1002800001491820ABBEFEE72600020070470000BF
:10029000FEE7000070470000014690F821000228A8
:1002A00016D10868D1E90FC3026822F00E0202607D
:1002B000026822F001020260012000FA03F2CCF889
:1002C000042081F821000020002281F820207047BE
:1002D000042088630120002281F82020704700005C
:1002E00080B590F82110022924D10268116821F00C
:1002F0000E0111602F211368C4F202018A4240F2FC
:100300000401C4F2020123F00103136016DD30235F
:10031000C4F202039A421DD04423C4F202039A425B
:100320001CD05823C4F202039A421DD14FF48033EB
:1003300022E000BF04218163012080BD0823C4F2B4
:1003400002039A420ED01C23C4F202039A420BD13C
:10035000102311E04FF480730EE000BF4FF4805380
:100360000AE000BF012307E001F1680C4FF0807341
:10037000624508BF4FF480130B60012180F8211003
:10038000426B002180F820100AB1904700210846F6
:1003900080BD00002DE9F04F82B041F20042C4F26E
:1003A00001020E680423904208BF0323002E00932D
:1003B00000F0F68040F2004C4FF6FF7E0022C4F2BF
:1003C000010C0124C1F2100E4FF0000A4FF0000999
:1003D00047E000BF012502F00C040F27A7402BEADD
:1003E000070705FA04F43C4343F82640D1F804B06B
:1003F00040F20C455FEACB23DCF8083054BF23EA17
:10040000080343EA0803C4F20105CCF808302B685E
:100410005FEA8B2454BF23EA080343EA08032B60F6
:100420005FEA8B34DCF8043054BF23EA080343EA64
:1004300008035FEACB34CCF80430DCF800304FF02E
:10044000010454BF23EA080343EA0803CCF8003050
:100450000E680AF1010A36FA0AF302F1040200F00A
:100460009F8004FA0AF816EA080FF1D04B6873452A
:1004700012DC122B56D8DFE803F0350B45495555F1
:1004800055555555555555555555554D510000BF68
:10049000D1F80C9046E000BF4FF6FF75C1F2210580
:1004A000AB420FDC0025C1F21105AB421AD000258A
:1004B000C1F21205AB4215D00025C1F22105AB42B5
:1004C00010D02FE00025C1F22205AB420AD0002552
:1004D000C1F23105AB4205D00025C1F23205AB4275
:1004E00020D100BF8B684BB1012B14BFC0F8148022
:1004F000C0F810804FF0080914E000BF4FF0040965
:1005000010E000BFCB6803F108090BE04FF00009D1
:1005100008E000BFCB6803F1040903E0CB6803F1F6
:100520000C0900BF13460546BAF1080F24BF203B53
:1005300004352E680F279F40BE4309FA03F3334367
:100540002B60CB79DB067FF583AF41F21804C4F250
:10055000020423684FEA9A0643F0010323602368EC
:1005600040F6000403F001030193019BACF57E7398
:1005700053F826B0C4F20104A0420FD040F6004464
:10058000C4F20104A0423FF425AF41F20004C4F2DA
:100590000104009DA04208BF02251CE700251AE7C0
:1005A00002B0BDE8F08F0000002A08BF0904016115
:1005B0007047000040F20410C2F20000006870476B
:1005C00040F2000040F20411C2F20000C2F2000149
:1005D00000780A68104408607047000080B542F255
:1005E0000000C4F20200016841F010010160032024
:1005F00000F08AF80F2000F005F800F027F800203E
:1006000080BD000070B540F20006C2F2000640F264
:1006100008013278C2F200014FF47A730968B3FB23
:10062000F2F20446B1FBF2F1084600F05FFB0F2C3A
:100630004FF0010508D838B94FF0FF3021460022AD
:10064000002500F035F87460284670BD82B041F294
:100650001800C4F202000168022241F001010160A9
:10066000016801F0010101910199416841F0805157
:100670004160406800F08050009000980420C4F26F
:100680000100016862F31A61016002B07047000066
:10069000002848BF704700F01F01012202FA01F153
:1006A0004EF200124009CEF2000242F820107047CC
:1006B00010B54EF60C5CCEF2000CDCF80030C3F343
:1006C000022E8EF00704042C28BF0424BEF103037D
:1006D0004FF0FF3E0EFA04F438BF0023A1439940C7
:1006E0000EFA03F39A43114300F00F02043A6244F6
:1006F00009010C3200F16043B0F1FF3FC8BF03F5C0
:100700006442117010BD00004EF60C51CEF2000193
:100710000A684FF6FF031A4060F30A2242F0806035
:1007200040F0FD70086070472DE9F04381B000286B
:1007300000F0858042F20008C4F202080446D8F8AE
:1007400000000D4600F0070088420CD2D8F80000E7
:1007500020F007002843C8F80000D8F8000000F097
:100760000700A8426BD1206841F204098107C4F256
:10077000020917D5410705D5D9F8001041F4E06109
:10078000C9F80010010705D5D9F8001041F46051EF
:10079000C9F80010D9F80010A26821F0F001114347
:1007A000C9F80010C00741D1D8F8000000F00700D8
:1007B000A8420CD9D8F8000020F007002843C8F858
:1007C0000000D8F8000000F00700A84237D12068E8
:1007D000410707D5D9F80010E26821F4E061114320
:1007E000C9F80010000708D5D9F80000216920F4E5
:1007F000605040EAC100C9F80000D9F8002002F0BA
:100800000C00082841F20020C0F27A0050D141F6D5
:10081000C463C2F38341C0F60003595CD2033BD4E6
:1008200040F60010C0F23D00484341E060680228F5
:100830000AD001282AD159F8041C890308D40120C0
:1008400001B0BDE8F08300BF59F8041C8901F6D55A
:10085000D9F8001021F003010843C9F80000FFF7A0
:10086000A9FE064641F28837D9F80000616800F019
:100870000C00B0EB810F97D0FFF79CFE801BB842B5
:10088000F2D9032001B0BDE8F08300BF59F8041C81
:100890008907D4D5DCE700BFD9F8002041F6C26350
:1008A000C2F34042C0F600039A5C4843B0FBF2F04A
:1008B000D9F8001041F6AA62C1F30311C0F6000294
:1008C000515C40F2080220FA01F140F20400C2F249
:1008D00000000068C2F200021160FFF793FE0020E2
:1008E00001B0BDE8F083000040F2080041F20401CD
:1008F000C2F20000C4F202010068096841F6BA625F
:10090000C1F30221C0F60002515CC84070470000EC
:1009100040F2080041F20401C2F20000C4F20201F8
:100920000068096841F6BA62C1F3C221C0F600024C
:10093000515CC840704700002DE9F04182B00028AA
:1009400068D00446007841F20006C007C4F20206EF
:1009500025D0706800F00C0004281BD0706800F0EF
:100960000C00082802D17068C00313D46068002806
:1009700000F06881B0F5A02F00F07C81B0F5803FD9
:1009800000F07C81306820F480303060306820F4E2
:10099000802076E13068800301D56068D0B320788C
:1009A000800718D5706810F00C0F07D0706800F041
:1009B0000C0008286ED17068C0036BD430688007C3
:1009C00002D52069012825D13068616920F0F8003E
:1009D00040EAC1003060207800071FD4207840072B
:1009E00032D4E56995B1706800F00C00082840F039
:1009F0008F80012D0ED07068216A00F480328A4207
:100A000008D1616A00F47010884203D1002002B05E
:100A1000BDE8F081012002B0BDE8F081A0690028A6
:100A200062D00020C4F242200121C0F88014FFF7F8
:100A3000C1FD0546706A800700F18C80FFF7BAFDA2
:100A4000401B0228F6D92AE1F06910F0805808D13D
:100A5000F06940F08050F061F06900F08050009043
:100A6000009847F20007C4F200073868C00529D48F
:100A7000386840F480703860FFF79CFD054600BF81
:100A80003868C0051ED4FFF795FD401B6428F7D9D0
:100A900005E100BF2069002840F20000C4F24220B6
:100AA00000F0828001210160FFF784FD054600BF50
:100AB000306880073FF588AFFFF77CFD401B0228B8
:100AC000F6D9ECE0E068002800F08080052800F00E
:100AD0009780012800F09880306A20F00100306291
:100AE000306A20F0040092E00020C4F2422000218D
:100AF000C0F88014FFF75EFD054600BF706A8007EE
:100B00007FF56CAFFFF756FD401B0228F6D9C6E013
:100B10000027C4F2422700203866FFF74BFD022D64
:100B200005460BD13068800140F1BE80FFF742FDE1
:100B3000401B02284FF00300F4D968E730688001B9
:100B40007FF564AFFFF736FD401B02284FF003002E
:100B5000F4D95CE740F20800C2F20000006844F6F5
:100B6000D351C1F26201A0FB0101480A019000BF0C
:100B700000BF0198411E002801913FF42FAF00BF34
:100B80000198411E002801913FF428AF00BF019851
:100B9000411E002801913FF421AF00BF0198411E82
:100BA00000280191E4D119E700210160FFF702FD5F
:100BB000054600BF306880077FF50DAFFFF7FAFCF0
:100BC000401B02284FF00300F4D920E7306A20F0E0
:100BD00001003062306A20F004003062FFF7EAFC66
:100BE000054641F2883700BF306A800720D5FFF7FD
:100BF000E1FC401BB8424FF00300F5D907E700BF06
:100C0000306A40F004003062306A40F00100306227
:100C1000FFF7D0FC054641F2883700BF306A8007F5
:100C200006D4FFF7C7FC401BB842F7D937E000BF36
:100C3000B8F1000F7FF4D5AEF06920F08050F0617C
:100C4000CFE600BF306820F480303060306820F498
:100C500080203060FFF7AEFC054600BF306880039F
:100C60007FF59DAEFFF7A6FC401B64284FF0030004
:100C7000F4D9CCE6306840F480203060306840F42D
:100C800080303060FFF796FC054600BF3068800377
:100C90003FF585AEFFF78EFC401B6428F6D9032094
:100CA00002B0BDE8F08100BF206AB0F5803F05D1F9
:100CB0007168A26821F40031114371607168626A41
:100CC00021F4741110430843706001203866FFF767
:100CD00071FC0446306880013FF598AEFFF76AFC6E
:100CE000001B02284FF00300F4D990E6411E0020BB
:100CF000B0EB116F1CBF012070474EF21002CEF214
:100D0000000251604EF62351CEF20001F0230B7029
:100D1000072190601160704710B590F83C20012ABF
:100D20004FF0020233D080F83D200268D2F804E090
:100D3000D2F808C00C682EF07003234340F2FF7411
:100D4000C4F20004A24253600ADCB2F1804F13D017
:100D500040F20043C4F200039A420DD011E000BFFC
:100D600042F60043C4F201039A4205D040F6000364
:100D7000C4F200039A4204D149682CF0800319435D
:100D800091600121002280F83D1080F83C2010463F
:100D900010BD0000002804BF0120704710B50446B4
:100DA00090F83D0028B9002084F83C00204600F06F
:100DB0006FF8022084F83D00206840F2FF7302685B
:100DC000C4F2000342F6004C9842C4F2010C15DC58
:100DD000B0F1804F1AD040F20041C4F200018842C5
:100DE00014D0984218DCB0F1804F1DD040F2004181
:100DF000C4F20001884217D01AE000BF604505D058
:100E000040F60001C4F200018842EAD1A16822F054
:100E100070020A439842E6DD604505D040F60001C5
:100E2000C4F20001884203D1216922F440720A43CE
:100E3000A36922F08001D4F804E0E2681943604518
:100E40000160C262C0F828E002D16169CCF83010BC
:100E5000012141610269D20703D0026922F0010237
:100E60000261002084F8461084F83E1084F83F1098
:100E700084F8401084F8411084F8421084F843103C
:100E800084F8441084F8451084F83D1010BD00002B
:100E900081B00068B0F1804F02D001B0704700BF50
:100EA00041F21C00C4F20200016841F0010101603E
:100EB000006800F001000090009801B07047000049
:100EC00090F83D1001291CBF01207047022180F8D5
:100ED0003D10006840F2FF71C4F20001884209DC55
:100EE000B0F1804F12D040F20041C4F200018842BC
:100EF0000CD012E042F60041C4F20101884205D054
:100F000040F60001C4F20001884206D1816801F078
:100F10000701062904BF00207047016841F0010164
:100F200001600020704700000146006841F2111383
:100F3000026A1A4204D00122002081F83D20704745
:100F4000026A40F244431A42F5D1026822F00102DB
:100F500002600122002081F83D20704780B590F8A2
:100F60003C20012A4FF0020200F0C28080F83D20B0
:100F7000D0F800C04FF67772DCF8083023EA02029E
:100F8000CCF808200B684F2B28DC1F2B44DD202BCE
:100F900045D0302B43D0402B40F0AC80D1F804E05A
:100FA000C968DCF82030DCF8202022F00102CCF8FF
:100FB0002020DCF8182022F0F00242EA011123F090
:100FC0000A0242EA0E02CCF81810CCF82020DCF815
:100FD000081041F0470121F0300180E06F2B27DD40
:100FE000B3F5005F48D0B3F5805F7AD0702B40F046
:100FF0008180D1E901E3C968DCF8082043EA0E03E7
:1010000022F47F4243EA01211143CCF80810DCF8B6
:10101000081041F0770162E00BB1102B6AD1DCF8C7
:10102000081021F07001194341F0070157E000BF9B
:10103000502B35D0602B5DD1D1F804E0C968DCF8C5
:101040002030DCF8202022F01002CCF82020DCF840
:10105000182022F4704242EA013123F0A00242EA51
:101060000E12CCF81810CCF82020DCF8081041F053
:10107000670121F0100132E0D1E901E3C968DCF831
:10108000082043EA0E0322F47F4243EA0121114380
:10109000CCF80810DCF8081041F480411FE000BFD4
:1010A000D1F804E0C968DCF82030DCF8202022F018
:1010B0000102CCF82020DCF8182022F0F00242EAED
:1010C000011123F00A0242EA0E02CCF81810CCF803
:1010D0002020DCF8081041F0570121F02001CCF865
:1010E00008100022012180F83D10002180F83C10FA
:1010F000104680BD0122F5E77047000070470000F0
:10110000B0B582B0044600680168C368426901F066
:101110002F05202D03F0200506D12DB1204602B069
:10112000BDE8B04000F060BD5FEA017C1EBF02F088
:10113000010E03F4907212EB0E0255D1226B012ABC
:1011400005D111F0100218BF13F0100236D10A06B3
:1011500022D513F080021FD094F84110212941D1EB
:10116000A168B1F5805F03D12169002900F0728286
:10117000216A4A1C226209784160E18C01390A0423
:10118000E1842FD1C16821F08001C160C16841F0C4
:101190004001C16002B0B0BD490623D513F0400143
:1011A00020D0C16821F04001C1602021204684F890
:1011B000411002B0BDE8B04000F000BD0021019137
:1011C000016801914168019101994169490600F165
:1011D0008F80A18DE28DE38D002B1CBF891A5FEA01
:1011E00001420CD102B0B0BDCA0718BF13F480721F
:1011F00040F038814A0700F13B8140E1206850E827
:10120000030F226820F4907042E80303DBB12068EA
:1012100050E8030F226820F4907042E8030393B172
:10122000206850E8030F226820F4907042E803031E
:101230004BB1206850E8030F226820F4907042E818
:101240000303002BDAD1206850E8050F226820F054
:10125000010042E80503DBB1206850E8050F226871
:1012600020F0010042E8050393B1206850E8050F23
:10127000226820F0010042E805034BB1206850E8E5
:10128000050F226820F0010042E80503002BDAD1A7
:10129000202084F8420000202063206850E8030FDB
:1012A000226820F0100042E80303DBB1206850E818
:1012B000030F226820F0100042E8030393B1206876
:1012C00050E8030F226820F0100042E803034BB1FE
:1012D000206850E8030F226820F0100042E8030362
:1012E000002BDAD1022289B220466263B4E000BF4B
:1012F000E16B0A68526893B2002B3FF473AFA58D7F
:10130000AB42BFF46FAFE2858969202900F09D8070
:1013100050E8030F216820F4807041E80302EAB12D
:10132000206850E8030F216820F4807041E8030230
:10133000A2B1206850E8030F216820F4807041E8D2
:1013400003025AB1206850E8030F216820F480702E
:1013500041E8030212B12068DAE700BF206850E8D4
:10136000050F216820F0010041E80502DAB120688C
:1013700050E8050F216820F0010041E8050292B114
:10138000206850E8050F216820F0010041E80502BF
:101390004AB1206850E8050F216820F0010041E8BB
:1013A0000502002ADAD1206850E8050F216820F0F4
:1013B000400041E80502DAB1206850E8050F2168D5
:1013C00020F0400041E8050292B1206850E8050F86
:1013D000216820F0400041E805024AB1206850E849
:1013E000050F216820F0400041E80502002ADAD10B
:1013F000202084F8420000202063206850E8030F7A
:10140000216820F0100041E80302DAB1206850E8BA
:10141000030F216820F0100041E8030292B1206818
:1014200050E8030F216820F0100041E803024AB1A0
:10143000206850E8030F216820F0100041E8030203
:10144000002ADAD1E06BFEF727FF02206063A08D4F
:10145000E18D401A81B2204602B0BDE8B040FFF7EE
:101460004BBE00BF626C42F0010262644A0706D5BF
:10147000BEF1000F03D0626C42F0020262648A0780
:1014800006D5BEF1000F03D0626C42F00402626424
:10149000BCF1000F06D555EA0E0203D0626C42F093
:1014A00008026264626C002A3FF49CAE11F02001D5
:1014B00018BF002D03D0204600F096FB206841693C
:1014C000626C01F0400102F00802891800F0A2806D
:1014D00050E8030F216820F4907041E80302C2B382
:1014E000206850E8030F216820F4907041E803025F
:1014F0007AB3206850E8030F216820F4907041E827
:10150000030232B3206850E8030F216820F4907082
:1015100041E80302EAB12068DAE700BF206850E83A
:10152000050F216820F0010041E80502DAB12068CA
:1015300050E8050F216820F0010041E8050292B152
:10154000206850E8050F216820F0010041E80502FD
:101550004AB1206850E8050F216820F0010041E8F9
:101560000502002ADAD1206B012824D1206850E836
:10157000030F216820F0100041E80302DAB120686F
:1015800050E8030F216820F0100041E8030292B1F7
:10159000206850E8030F216820F0100041E80302A2
:1015A0004AB1206850E8030F216820F0100041E89C
:1015B0000302002ADAD1202084F8420000202063B0
:1015C0002068416949063FD550E8050F216820F0A1
:1015D000400041E805022AB3206850E8050F216861
:1015E00020F0400041E80502E2B1206850E8050F14
:1015F000216820F0400041E805029AB1206850E8D7
:10160000050F216820F0400041E8050252B1206832
:10161000DAE700BF2046FFF771FD0020606402B0EA
:10162000B0BD00BFE06B78B141F6DD31C0F600011E
:101630004163FEF755FE00283FF4D4ADE06B416BEB
:1016400002B0BDE8B0400847204602B0BDE8B04057
:10165000FFF754BD216A31F8022B6FF35F2242601D
:1016600021628AE5002804BF0120704710B50446B6
:1016700090F8410028B9002084F84000204600F08E
:1016800061F8242084F841002068D4E90212C3687C
:1016900023F40053C360036923F440531A430261E7
:1016A000D4E904231143C268194341F20C639A43FD
:1016B0001143C1604169A26921F44071114343F6AD
:1016C0000002C4F201029042416103D0FFF70CF91D
:1016D00002E000BFFFF71CF962681921484391003E
:1016E000B0FBF1F048F21F51C5F2EB11A0FB012352
:1016F0005A096FF0630302FB0300322303EB00106F
:10170000A0FB0101F02303EA5113206803EB02124E
:10171000C1F3431111448160016921F490410161D9
:10172000416921F02A014161C16841F40051C16061
:1017300000202021606484F8411084F84210606326
:1017400010BD000070B586B040F60004C4F201047C
:10175000006804F5405100268842049602D006B085
:1017600070BD00BF41F21800C4F20200016802AD72
:1017700041F480410160016801F4804101910199C7
:10178000016841F0040101600068294600F004008E
:10179000019001984FF40070029002200390032002
:1017A00005902046FEF7F6FD4FF48060CDE9020675
:1017B0000120049020462946FEF7ECFD252000215B
:1017C0000022FEF775FF2520FEF762FF06B070BD10
:1017D00090F84230202B1CBF0220704700294FF0A8
:1017E000010318BF002A01D1184670470023036384
:1017F000816222218285C285436480F8421001699A
:10180000006819B1C16841F48071C1604169002369
:1018100041F001014161C16841F02001C1601846F9
:10182000704700002DE9F04F81B040F6000BC4F284
:10183000010B00680BF5405188421CBF01B0BDE8A8
:10184000F08F40F27008C2F2000898F800003138BA
:10185000032800F2EF80DFE800F0033B73AB00BF2A
:10186000584608210122FEF79FFE58460221012218
:10187000FEF79AFE00274FF6DC794FF6F9754FF622
:10188000FA7408F1040A06E05046FFF74DFB0137F1
:10189000802F00F0C580DBF80C00464680F0040085
:1018A000CBF80C0056F8040FC0F824903046FFF730
:1018B00007FB3068416AA942E6D8416AA942E3D8E9
:1018C000416AA942E0D8416AA142F3D3DCE700BFF4
:1018D000584608210122FEF767FE584602210022E1
:1018E0000027FEF761FE4FF6DC794FF6F9754FF6EB
:1018F000FA7408F1040A06E05046FFF715FB0137B9
:10190000802F00F08D80DBF80C00464680F004004C
:10191000CBF80C0056F8040FC0F824903046FFF7BF
:10192000CFFA3068416AA942E6D8416AA942E3D8B1
:10193000416AA942E0D8416AA142F3D3DCE700BF83
:10194000584608210122FEF72FFE584602210122A7
:10195000FEF72AFE00274FF6EB794FF6F9754FF6A2
:10196000FA7408F1040A06E05046FFF7DDFA013781
:10197000B7F5A06F54D0DBF80C00464680F00400A9
:10198000CBF80C0056F8040FC0F824903046FFF74F
:1019900097FA3068416AA942E6D8416AA942E3D879
:1019A000416AA942E0D8416AA142F3D3DCE700BF13
:1019B000584608210122FEF7F7FD58460221002271
:1019C0000027FEF7F1FD4FF6EB794FF6F9754FF66C
:1019D000FA7408F1040A06E05046FFF7A5FA013749
:1019E000B7F5A06F1CD0DBF80C00464680F0040071
:1019F000CBF80C0056F8040FC0F824903046FFF7DF
:101A00005FFA3068416AA942E6D8416AA942E3D840
:101A1000416AA942E0D8416AA142F3D3DCE700BFA2
:101A200040F2BC00C2F2000009A101224FF0FF33D6
:101A300000F010F840F2BC0040F27001C2F2000069
:101A4000C2F20001012201B0BDE8F04FFFF7C0BEB5
:101A5000440000002DE9F041044690F841002028A0
:101A60001CBF0220BDE8F0810F4600294FF00100A5
:101A700000F082801646002A08BFBDE8F0814FF0D2
:101A8000000821201D46C4F8448084F84100FEF778
:101A900091FDA684E684A1680646B1F5805F05D174
:101AA0002069002814BF3846B8460746E08CC8B104
:101AB000681C19D0002D61D1216807E017F8010BCF
:101AC0004860E08C0138E084E08C68B30868000668
:101AD0004CD5002FF2D138F8020B00276FF35F20AE
:101AE000EEE700BF21681FE0216802E008680006F9
:101AF00009D40868000606D4086800065CBF0868B8
:101B00005FEA0060F2D51FB117F8010B05E000BFD6
:101B100038F8020B00276FF35F204860E08C013833
:101B2000E084E08C0028E4D1086840061CD4EDB1C4
:101B3000681C0FD10868400616D40868400613D404
:101B40000868400610D4086840064FF00000F1D540
:101B50000FE000BFFEF72EFD801BA84208D82068CA
:101B6000C16800684006F5D5002002E0FEF722FDBE
:101B70000320202184F84110BDE8F081216800BFD6
:101B80000868000608D4FEF715FD801BA842EFD8B0
:101B90002168C868F4E700BF17B117F8010B04E02B
:101BA00038F8020B00276FF35F204860E08C0138A3
:101BB000E084E08C0028E3D1B6E700007047000025
:101BC000FEE70000FEE70000FEE7000070470000AF
:101BD00070470000FEF7F4BC70470000406A002127
:101BE000C185C184FFF78ABA81B090F842102229DA
:101BF00020D18368B3F5805F08D10169002965D0E1
:101C000000F128010A6803685B680AE0014651F8A0
:101C1000282F13B90369002BF5D003685B6803F024
:101C20007F0313700A6801320A60C18D01390A040A
:101C3000C18501D001B070470168CA6822F0200256
:101C4000CA60CA6822F48072CA604A6922F001023E
:101C50004A61202280F8422000224263036B012B5C
:101C60003ED1026351E8031F026821F0100142E8EF
:101C700003130168DBB151E8031F026821F0100172
:101C800042E80313016893B151E8031F026821F091
:101C9000100142E8031301684BB151E8031F0268C9
:101CA00021F0100142E803130168002BDAD10A6821
:101CB000D20606D5002200920A6800924968009177
:101CC0000099818D01B0FFF717BA00BF0168826AE1
:101CD00049686FF35F2122F8021B8262A5E700BF0B
:101CE00001B0FFF79FBD000040F2BC00C2F200004F
:101CF000FFF706BAFEE7000090B0FEF76FFC06ACF7
:101D0000201D2421FEF760FA0220069001200A908F
:101D100010200B90002520460D95FEF70DFE28B1F2
:101D2000EFF3108072B600BFFEE700BF0F20CDE9D1
:101D3000000568460021CDE902550495FEF7F4FC44
:101D400020B1EFF3108072B6FEE700BF41F2180039
:101D5000C4F20200016840F6000941F01001016080
:101D60000168C4F2010901F01001069106990168A9
:101D700009F5006541F0040101600168002201F0ED
:101D800004010691069901684FF4005641F00801DC
:101D9000016000684FF4005100F0080006900698BA
:101DA00028460027FEF700FC48460E2100224FF08F
:101DB0000E08FEF7F9FB069606AE01244FF0020A64
:101DC00028463146CDE90747CDF824A0FEF7E2FAD0
:101DD00048463146CDE90684CDE9087AFEF7DAFABD
:101DE0004FF4E040CDE9060709F5806031460894DC
:101DF000FEF7D0FA40F2BC0009F54051C2F20000F3
:101E00000C234FF4E13280E88600C0E90377C0E993
:101E10000537C761FFF726FC20B1EFF3108072B6DB
:101E2000FEE700BF40F27004C2F200044FF08041B0
:101E3000204640F8041F47214FF6FF720997CDE96D
:101E40000777CDE90077C0E90117C0E9032787616B
:101E5000FEF7A0FF20B1EFF3108072B6FEE700BFDF
:101E60004FF480500434069006A92046FFF776F818
:101E700020B1EFF3108072B6FEE700BF694620463E
:101E8000FEF74AFF20B1EFF3108072B6FEE700BF05
:101E900040F2BC0040F27001C2F20000C2F2000148
:101EA0000122FFF795FC00BFFEE7000000000000E4
:101EB00000000102030406070809000000000102F7
:101EC0000304010202030405060708090A0B0C0DAE
:101ED0000E0F1010F81E0008000000201000000077
:101EE00028010008081F000810000020F806000064
:101EF0004401000800000000010000001000000084
:081F000000127A00000000004D
:04000005080000ED02
:00000001FF
